:1000000019C028C027C007C607C524C023C022C006
:1000100021C083C51FC01EC01DC01CC01BC01AC08C
:1000200019C018C017C016C015C014C013C012C024
:10003000A1C110C011241FBECFEFD4E0DEBFCDBFE1
:1000400022E0A0E0B1E001C01D92A53FB207E1F7B8
:1000500067D60EC7D5CF80913101811106C090912E
:100060002B0181E0933671F40CC040912B0120915B
:10007000310150E030E02150310981E0421753074F
:1000800009F480E00895CF93DF931F92CDB7DEB7D8
:100090008983E1DF8823B1F0E0912B01F0E08981D1
:1000A000E257FD4F808380912B018F5F80932B015E
:1000B00080912B01843640F080912B0184568093EF
:1000C0002B0102C080E001C081E00F90DF91CF9151
:1000D0000895209122019091230181E0291301C00C
:1000E00080E008952091240190918B0281E02913F2
:1000F00001C080E0089580912301811106C0909194
:10010000220181E0933071F40CC0409122012091D2
:10011000230150E030E02150310981E042175307BC
:1001200009F480E0089580918B02811106C09091BE
:10013000240181E0933071F40CC04091240120919E
:100140008B0250E030E02150310981E04217530723
:1001500009F480E0089580918B0226E0829FC0011F
:10016000112481529E4F08958091240126E0829FA0
:10017000C001112481529E4F089590918B0280916D
:100180002401981729F080918B028F5F80938B0256
:1001900080918B02843028F080918B028450809370
:1001A0008B020895CF93DF9300D000D000D0CDB75D
:1001B000DEB749835A836B837C838D839E83B3DF51
:1001C0008823E9F0A091240186E08A9FD0011124C0
:1001D000A152BE4FFE01319601900D928A95E1F732
:1001E000809124018F5F80932401809124018430C9
:1001F00040F08091240184508093240102C080E06B
:1002000001C081E026960FB6F894DEBF0FBECDBFC9
:10021000DF91CF9108958091230124E2829FC00154
:10022000112487509E4F08958091220124E2829FDD
:10023000C001112487509E4F089590912301809111
:100240002201981729F0809123018F5F8093230169
:1002500080912301843028F0809123018450809381
:1002600023010895CF93DF93CDB7DEB744DF882312
:10027000E9F0A091220184E28A9FD0011124A750C5
:10028000BE4FFE01359601900D928A95E1F780915F
:1002900022018F5F8093220180912201843040F0FF
:1002A0008091220184508093220102C080E001C02D
:1002B00081E0DF91CF9108951092230110922201E5
:1002C00010928B021092240181E08093F70110922A
:1002D0005A011092300185EC8093BC001092B90055
:1002E00089E18093B80008958AE090E0909321011D
:1002F000809320012AE030E080912001909121013B
:10030000181619067CF4349B02C0359905C0309349
:10031000210120932001F0CF019790932101809338
:100320002001EACF089580915A0181110AC0D1DEDF
:10033000882339F01092F7011092300185EA8093FA
:10034000BC000895CF93C82F80915A01882311F0E3
:100350008FEF0EC0E8DE8823D9F391E09093F70188
:10036000C093250190935A0185EA8093BC0081E0F7
:10037000CF9108951F920F920FB60F9211242F93D1
:100380003F934F935F936F937F938F939F93AF931D
:10039000BF93EF93FF938091B900887F803309F476
:1003A0009DC080F4883109F4AFC028F4883031F161
:1003B000803121F1D6C0803209F490C0883209F42E
:1003C000A3C0CFC0883409F444C030F4883399F115
:1003D000803409F4C4C0C5C0803509F445C08835EF
:1003E00009F0BFC0E0918902F0E08091BB00EB5DB5
:1003F000FE4F828385E98093BC005EC081E08093DC
:100400005A01109289028091F701882339F01092E5
:10041000260180912501880F816094C0E09123011D
:1004200084E2E89FF0011124E750FE4F808190E0C4
:10043000880F991F87C080913001823020F485EAAF
:100440008093BC0003C0F9DE10925A0185EC8093C2
:10045000BC0085E98093BC008091BC0084FDFCCF8A
:1004600085EC8093BC004DC08091890281110BC046
:100470008091BB00803321F0803429F482E001C0F8
:1004800083E080932601E0918902F0E08091BB0037
:10049000EB5DFE4F8283809189028F5F809389029A
:1004A000209189028091260130E090E00197281781
:1004B00039070CF056C053C08091BC0084FDFCCFBE
:1004C00040912501509126016091270170912801EA
:1004D0008091290190912A0165DE3FC085E98093D2
:1004E000BC008091BC0084FDFCCF809130018F5F07
:1004F0008093300180913001823010F485EA32C05F
:100500009CDE10925A0130C0A091230184E28A9FA0
:10051000D0011124A750BE4F2091890211969C91C1
:10052000291798F4E09123018E9FF0011124E750E0
:10053000FE4F8091890291E0980F90938902E80F15
:10054000F11D82818093BB000CC085E98093BC00C3
:100550008091BC0084FDFCCF70DE10925A0185ECC6
:1005600001C085E88093BC00FF91EF91BF91AF91EE
:100570009F918F917F916F915F914F913F912F91BB
:100580000F900FBE0F901F90189510928D02109231
:100590008C0210922B011092310187B1836087B9D0
:1005A00087B1837F87B988B1836088B9E8E6F0E0D6
:1005B000808182608083ECE6F0E0808188608083C7
:1005C0000895419A8FEF8AB990912B018091310162
:1005D000981701F132991EC0409AE0913101F0E084
:1005E000E257FD4F80818BB9409890913101809105
:1005F0002B01981729F0809131018F5F8093310191
:1006000080913101843600F38091310184568093CA
:100610003101DACF089590E4899FF0011124E60FAB
:10062000F11DE45AFE4F40830895ECE5F1E081931B
:1006300091E0EC39F907D9F7ECE9F1E0819391E029
:10064000EC3DF907D9F7089580E0EFCF20E4829FD1
:10065000C0011124845A9E4F20E030E0FC01E20FDB
:10066000F31F60832F5F3F4F20343105B9F70895A2
:10067000CF93DF9320E4829FC0011124845A9E4FC0
:1006800020E030E0DB01FC01E20FF31FEB014991B8
:10069000BE014F7041834C9142954F7040832E5F55
:1006A0003F4F2034310571F7DF91CF910895CF93FB
:1006B000DF93E62FF0E090E036E0880F991F3A953F
:1006C000E1F74617A0F08E0F9F1F845A9E4F60E0FF
:1006D00070E050E0DB01AE0FBF1F4A175B0754F11B
:1006E000DC01A60FB71F2C936F5F7F4FF3CFDF01A5
:1006F000A80FB91FA45ABE4F60E070E0EB01CE0F07
:10070000DF1FC034D1053CF4ED01C60FD71F28838D
:100710006F5F7F4FF3CF845A9E4F60E070E050E0F0
:10072000461757073CF0FC01E60FF71F20836F5F69
:100730007F4FF6CFDF91CF91089590E4899FF0012C
:100740001124E60FF11DE45AFE4F8081089520E444
:10075000829FC0011124845A9E4F089580E091E049
:10076000089520E2FC01A0E0B1E001900D922A95ED
:10077000E1F708956F927F928F929F92AF92BF920E
:10078000CF92DF92EF92FF920F931F93CF93DF935D
:100790001AB803E010E066246394712C64E0E62E3E
:1007A000F12C72E2C72ED12CE5E0AE2EB12CF1E295
:1007B0008F2E912C339921C1419800000000000038
:1007C000000089B1E0918C02F0918D02EE5CFE4F49
:1007D0008083419A80918C0290918D020196909332
:1007E0008D0280938C028130910509F040C02091E8
:1007F0003201263071F158F4223009F128F4222315
:1008000069F1213059F12FC0243041F51DC0203944
:10081000D9F030F42830E9F008F12F30F9F023C096
:10082000223941F0B0F02339F1F4B0922D01A092B9
:100830002C011DC0D0922D01C0922C0118C09092A5
:100840002D0180922C0113C0F0922D01E0922C0119
:100850000EC010932D0100932C0109C090932D011F
:1008600080932C0104C070922D0160922C01209184
:100870002C0130912D018217930709F09BCF8091B5
:1008800032018F3009F4A1C060F4813009F475C0E1
:1008900008F445C0823009F46DC0853009F482C087
:1008A000A7C0813971F158F4803909F0A1C0E091F5
:1008B00033018091340190913501E17012C0823989
:1008C00039F1833909F094C080913301609134018A
:1008D000409135014F736F73209136018170E7DECF
:1008E00087C0803410F08250FCCFF0E046E0EE0F7D
:1008F000FF1F4A95E1F7E80FF11DE45AFE4F908380
:1009000077C0809133016091340181709FDE70C0A7
:100910008091330164E371E08170AADE69C09BDBE2
:10092000811102C04EDEFBCF80E0ADDB94DB811194
:1009300002C047DEFBCF85E0A6DB8DDB811102C064
:1009400040DEFBCF82E09FDB86DB811102C039DE17
:10095000FBCF80E098DB7FDB811102C032DEFBCF72
:1009600081E091DB78DB811102C02BDEFBCF80E0E0
:100970008ADB3EC083E391E0F4DE6DDB811102C0CF
:1009800020DEFBCF81E07FDBC0E0D1E064DB8111C2
:1009900002C017DEFBCF899176DB81E0C032D80739
:1009A000A9F726C058DB811102C00BDEFBCF83E024
:1009B0006ADB51DB811102C004DEFBCF80E063DB28
:1009C0004ADB8111D4CFFDDDFBCF45DB811102C0B5
:1009D000F8DDFBCF8FE057DBC8E0D0E03CDB8111D6
:1009E00002C0EFDDFBCF8DE24EDB21972097B1F700
:1009F00010928D0210928C02DDCEDF91CF911F916B
:100A00000F91FF90EF90DF90CF90BF90AF909F90AD
:100A10008F907F906F9008951F920F920FB60F9254
:100A200011242F933F934F935F936F937F938F93F3
:100A30009F93AF93BF93EF93FF93339B9BDEFF9105
:100A4000EF91BF91AF919F918F917F916F915F9146
:100A50004F913F912F910F900FBE0F901F901895BF
:100A60000F931F93CF93DF9306E03CDB882309F4B9
:100A70004FC0C0918B020C9FE0011124C152DE4F88
:100A80008A81807F803419F58981823001F51B814C
:100A90001F7711508B8187FF0CC0DDDA811102C0F6
:100AA00090DDFBCF82E5EFDAD6DA81110EC089DD69
:100AB000FBCFD1DA811102C084DDFBCF81E5E3DA1F
:100AC000CADA811102C07DDDFBCF812F1EC08A8171
:100AD000807F8033D9F489818330C1F41B811F77F3
:100AE0001150B9DA811102C06CDDFBCF80E5CBDAA1
:100AF000B2DA811102C065DDFBCF812FC4DAABDA37
:100B0000811102C05EDDFBCF8C81BDDA36DBADCF5B
:100B1000DF91CF911F910F9108951F920F920FB601
:100B20000F9211242F933F934F935F936F937F9373
:100B30008F939F93AF93BF93EF93FF93CF93DF93E5
:100B4000CDB7DEB7A497DEBFCDBF18994BC07ED01E
:100B5000D2DA882309F446C020915B0181E0820F3C
:100B6000898381E28A8380E28B83FE01349660E48C
:100B7000269F90011124245A3E4F80E090E0D90135
:100B8000A80FB91F4C9160E1469FA0011124119656
:100B90005C915F70542B519302968034910579F7E4
:100BA0008DB79EB784970FB6F8949EBF0FBE8DBFCA
:100BB000ADB7BEB7119684E2FE01319601900D9259
:100BC0008A95E1F74FDB80915B018F5F0FB6F89458
:100BD000DEBF0FBECDBF823018F480935B0102C030
:100BE00010925B01A4960FB6F894DEBF0FBECDBF86
:100BF000DF91CF91FF91EF91BF91AF919F918F9135
:100C00007F916F915F914F913F912F910F900FBE08
:100C10000F901F9018951F920F920FB60F921124EC
:100C20008F9382E0189903C080938A0202C0809358
:100C3000DC018F910F900FBE0F901F9018951092AE
:100C4000F2021092F4021092F30208958091F202DF
:100C5000811165C08091F302843008F45DC0109268
:100C6000F3028091F402873011F461E003C0883010
:100C700021F462E080E0EADC49C0893011F463E0ED
:100C8000F9CF8A3011F464E0F5CF803111F461E0DE
:100C900033C0813111F462E02FC0823111F463E07E
:100CA0002BC08A3111F461E01FC08B3111F462E076
:100CB0001BC0883211F461E00CC0843661F463E03B
:100CC00080E0C4DC62E081E0C1DC61E082E0BEDCA7
:100CD00060E083E0D0CF853649F462E080E0B6DCA6
:100CE00061E081E0B3DC60E082E0C5CF863631F4BC
:100CF00061E080E0ABDC60E081E0BDCF873631F4BD
:100D000060E080E0A3DC81E08093F2028091F40255
:100D10008F5F8093F40208958F5F8093F3020895AC
:100D2000CF93DF93CDB7DEB7A4970FB6F894DEBFAD
:100D30000FBECDBF2FE784E89EE121508040904058
:100D4000E1F700C0000020988091680081608093E6
:100D5000680080916B00816080936B008091B1008E
:100D600086608093B10080917000816080937000F4
:100D70002198299A1092F80110925B019DDA64DCA7
:100D800004DC81E080938A021092DC01789414E202
:100D900001E0B1E5FB2EA0E5EA2E13DC61DEC3DA4B
:100DA000199936C08091F8018F5FCCDA87FD30C089
:100DB0008091F8018F5F8093F801823048F11092A2
:100DC000F80126C098D9882309F44DC080918A0281
:100DD00089830A83FB828DB79EB784970FB6F894F8
:100DE0009EBF0FBE8DBFADB7BEB71196FE01319647
:100DF000812F01900D928A95E1F734DA80918A0271
:100E0000815080938A020FB6F894DEBF0FBECDBF2B
:100E100080918A028111D6CF26C06DD9882309F42A
:100E2000BACF8091DC0189830A83EB828DB79EB7AC
:100E300084970FB6F8949EBF0FBE8DBFADB7BEB7F7
:100E40001196FE013196812F01900D928A95E1F75E
:100E500009DA8091DC0181508093DC010FB6F894AF
:100E6000DEBF0FBECDBF8091DC018111D6CF95CF03
:040E7000F894FFCF24
:00000001FF
