:1000000019C033C032C0C7C7E3C52FC02EC02DC032
:100010002CC0D6C72AC029C028C027C026C025C0EA
:1000200024C023C022C021C020C01FC01EC01DC0CC
:10003000A2C11BC011241FBECFEFD4E0DEBFCDBFD5
:1000400011E0A0E0B1E0E2ECF1E102C005900D9218
:10005000A032B107D9F712E0A0E2B1E001C01D92D1
:10006000A53FB107E1F7C8D6AAC8CACF909122012F
:100070008091230120E0981321E0822F0895909130
:10008000240180918B0220E0981321E0822F0895B3
:1000900080912301882331F48091220140E0833054
:1000A00061F40CC0209122018091230140E030E0F6
:1000B00090E001972817390709F041E0842F08954F
:1000C00080918B02882331F48091240140E08330B9
:1000D00061F40CC02091240180918B0240E030E05B
:1000E00090E001972817390709F041E0842F08951F
:1000F00020918B0286E0289F9001112421523E4FCF
:10010000C90108952091240186E0289F90011124BF
:1001100021523E4FC901089590918B028091240194
:10012000981729F080918B028F5F80938B028091CA
:100130008B02843028F080918B02845080938B0254
:100140000895DF93CF9300D000D000D0CDB7DEB7B5
:1001500049835A836B837C838D839E8380918B023A
:10016000882329F480912401833069F40AC0209106
:10017000240180918B0230E090E001972817390725
:1001800011F480E022C08091240190E0FC01EE0F88
:10019000FF1FE80FF91FEE0FFF1FE152FE4FDE01B8
:1001A000119686E00D9001928150E1F78091240133
:1001B0008F5F8093240180912401843028F0809106
:1001C000240184508093240181E026960FB6F89490
:1001D000DEBF0FBECDBFCF91DF91089520912301E7
:1001E00084E2289F9001112427503E4FC9010895B1
:1001F0002091220184E2289F9001112427503E4F34
:10020000C90108959091230180912201981729F046
:10021000809123018F5F809323018091230184309B
:1002200028F0809123018450809323010895DF9367
:10023000CF93CDB7DEB780912301882329F4809135
:100240002201833069F40AC02091220180912301A8
:1002500030E090E001972817390711F480E024C0BE
:100260008091220190E024E230E0829FF001839FA0
:10027000F00D929FF00D1124E750FE4FDE01159610
:1002800084E20D9001928150E1F7809122018F5F0D
:100290008093220180912201843028F080912201F4
:1002A00084508093220181E0CF91DF9108951092D4
:1002B00023011092220110928B021092240181E0FE
:1002C0008093F70110925A011092300185EC8093CF
:1002D000BC001092B90089E18093B80008958AE0CB
:1002E00090E009C0349B04C0359B02C0019703C055
:1002F0008AE090E0F7CF18161906A4F39093210135
:1003000080932001089580915A01882369F4909187
:10031000220180912301981739F01092F701109271
:10032000300185EA8093BC000895482F80915A01DE
:100330008823F9F480918B02882329F48091240189
:10034000833059F416C02091240180918B0230E053
:1003500090E001972817390761F081E08093F70159
:100360004093250180935A0185EA8093BC0081E087
:1003700008958FEF08951F920F920FB60F921124D8
:100380002F933F934F935F936F937F938F939F939D
:10039000AF93BF93EF93FF938091B900887F803331
:1003A00009F4A2C0813390F4883109F4B3C08931D3
:1003B00030F48830D9F0803109F0D7C017C08032CE
:1003C00009F492C0883209F0D0C0A4C08834D9F1B1
:1003D000893430F4883349F1803409F0C6C0C3C091
:1003E0008035E1F1883509F0C0C061C081E08093BB
:1003F0005A01109289028091F701882339F01092F6
:10040000260180912501880F81600CC0E0912301B5
:1004100084E2E89FF0011124E750FE4F808190E0D4
:10042000880F991F8093BB00A0C08091300182305B
:1004300020F485EA8093BC0003C0E4DE10925A01E8
:1004400085EC8093BC0085E98093BC008091BC0062
:1004500084FDFCCF85EC8093BC0059C0809189025B
:10046000882361F48091BB00803319F0803431F42B
:1004700002C083E001C082E080932601E0918902FE
:10048000F0E08091BB00EB5DFE4F8283809189029A
:100490008F5F80938902209189028091260130E04C
:1004A00090E00197281739070CF05FC05CC0E0911D
:1004B0008902F0E08091BB00EB5DFE4F828385E90D
:1004C0008093BC008091BC0084FDFCCF409125014D
:1004D0005091260160912701709128018091290196
:1004E00090912A012EDE3DC085E98093BC00809169
:1004F000BC0084FDFCCF809130018F5F8093300180
:1005000080913001823010F485EA30C07BDE109299
:100510005A012EC0E091230124E2E29FF001112450
:10052000E750FE4F909189028181981790F4E091F5
:100530002301E29FF0011124E750FE4F80918902D0
:10054000E80FF11D92819093BB008F5F8093890229
:100550000CC085E98093BC008091BC0084FDFCCF79
:1005600051DE10925A0185EC01C085E88093BC00F1
:10057000FF91EF91BF91AF919F918F917F916F917B
:100580005F914F913F912F910F900FBE0F901F9051
:100590001895DF93CF930F92CDB7DEB78983809103
:1005A0003101882329F480912B01833669F40AC034
:1005B00020912B018091310130E090E001972817C4
:1005C000390711F480E016C0E0912B01F0E0898139
:1005D000E257FD4F808380912B018F5F80932B0129
:1005E00080912B01843628F080912B0184568093D2
:1005F0002B0181E00F90CF91DF91089510928D0231
:1006000010928C0210922B011092310187B18360FD
:1006100087B987B1837F87B988B1836088B9E8E6F5
:10062000F0E0808182608083ECE6F0E08081886089
:1006300080830895419A8FEF8AB91DC0409AE09156
:100640003101F0E0E257FD4F80818BB940989091E5
:10065000310180912B01981729F0809131018F5F32
:100660008093310180913101843628F080913101ED
:1006700084568093310190912B018091310198171C
:1006800011F0329BDBCF0895E82FF0E056E0EE0F3B
:10069000FF1F5A95E1F7E60FF11DE45AFE4F408324
:1006A000089540E050E00BC081932F5F3F4F20340E
:1006B0003105D1F74F5F5F4F4230510559F0FA01D4
:1006C00066E0EE0FFF1F6A95E1F7E45AFE4F20E067
:1006D00030E0EACF089580E0E4DF089590E0E6E0BE
:1006E000880F991FEA95E1F7FC01E45AFE4F845602
:1006F0009E4F6193E817F907E1F70895262F372FEA
:10070000D90190E026E0880F991F2A95E1F7FC01B6
:10071000E45AFE4F9C0124563E4F8C918F7081838A
:100720008D9182958F7080833296E217F307A9F737
:1007300008950F931F93142F022F262F30E0482F78
:1007400050E01617C8F0FA0176E0EE0FFF1F7A9519
:10075000E1F7E20FF31FE45AFE4FA0E0B0E0B90169
:10076000412F50E002C001931196CD01860F971FD3
:1007700048175907C4F728C0FA0166E0EE0FFF1FBB
:100780006A95E1F7E20FF31FE45AFE4FA0E0B0E0F4
:10079000B90102C001931196CD01860F971F8034D5
:1007A0009105C4F3FA0136E0EE0FFF1F3A95E1F729
:1007B000E45AFE4F80E090E0412F50E002C00193E8
:1007C000019648175907DCF71F910F910895CF93B1
:1007D000DF931AB8E5C14198000000000000000056
:1007E00089B18083419A4F5F5F4F4130510551F588
:1007F00080913201883009F1893038F4843089F0F1
:100800008630D9F08230E1F415C08139B1F08239F7
:1008100018F48039A9F405C0823931F0833981F4A4
:1008200006C024E030E00EC022E230E00BC025E03C
:1008300030E008C021E230E005C023E030E002C033
:1008400021E030E031964217530709F0B4C15093CC
:100850008D0240938C0250932D0140932C01809186
:1008600032018F3009F466C1803150F4833020F4B6
:10087000813008F0E4C059C0853009F08DC115C140
:10088000813919F1823920F4803909F085C106C017
:100890008239B1F1833909F07FC139C0E091330168
:1008A0008091340190913501E17001C08250803413
:1008B000E8F7F0E026E0EE0FFF1F2A95E1F7E80FDA
:1008C000F11DE45AFE4F908367C18091330120915E
:1008D0003401817090E0FC01B6E0EE0FFF1FBA9585
:1008E000E1F7E45AFE4F0196A6E0880F991FAA95FA
:1008F000E1F7845A9E4F2193E817F907E1F74CC1BD
:1009000080913301817064E371E0F8DE45C180912C
:10091000330160913401409135016F734F738170E1
:100920002091360106DF38C185DE809131018823B0
:1009300029F480912B01833659F4F6CF20912B01B5
:100940008091310130E090E001972817390761F379
:1009500080E01FDE01C06EDE80913101882329F422
:1009600080912B01833659F4F6CF20912B01809191
:10097000310130E090E001972817390761F385E0F5
:1009800008DE01C057DE80913101882329F480916F
:100990002B01833659F4F6CF20912B018091310140
:1009A00030E090E001972817390761F382E0F1DD2C
:1009B00001C040DE80913101882329F480912B0110
:1009C000833659F4F6CF20912B018091310130E02C
:1009D00090E001972817390761F380E0DADD01C064
:1009E00029DE80913101882329F480912B018336FF
:1009F00059F4F6CF20912B018091310130E090E045
:100A000001972817390761F381E0C3DD01C012DEC9
:100A100080913101882331F480912B01833609F0D4
:100A200085C0F5CF20912B018091310130E090E01D
:100A300001972817390709F079C0E9CFFBDD8091CC
:100A40003101882329F480912B01833659F4F6CFA4
:100A500020912B018091310130E090E0019728171F
:100A6000390761F381E095DDC0E0D1E001C0E2DD4E
:100A700080913101882329F480912B01833659F428
:100A8000F6CF20912B018091310130E090E0019769
:100A90002817390761F388817CDD81E0CF31D807E1
:100AA00009F47AC02196E4CFC5DD80913101882315
:100AB00029F480912B01833659F4F6CF20912B0134
:100AC0008091310130E090E001972817390761F3F8
:100AD00083E05FDD01C0AEDD80913101882329F420
:100AE00080912B01833659F4F6CF20912B01809110
:100AF000310130E090E001972817390761F380E079
:100B000048DD01C097DD80913101882329F480916F
:100B10002B01833659F4F6CF20912B0180913101BE
:100B200030E090E001972817390761F380E031DD6C
:100B300033C080DD80913101882329F480912B011D
:100B4000833659F4F6CF20912B018091310130E0AA
:100B500090E001972817390761F38FE01ADDC0E0B4
:100B6000D0E001C067DD80913101882329F48091B4
:100B70002B01833659F4F6CF20912B01809131015E
:100B800030E090E001972817390761F38DE201DD2D
:100B90002196C830D10539F710928D0210928C023F
:100BA00040918C0250918D0220912C0130912D01A9
:100BB000FA01EE5CFE4F339B0ECE50938D024093B4
:100BC0008C0230932D0120932C01DF91CF91089559
:100BD0001F920F920FB60F9211242F933F934F93B2
:100BE0005F936F937F938F939F93AF93BF93EF9395
:100BF000FF93339BECDDFF91EF91BF91AF919F91FC
:100C00008F917F916F915F914F913F912F910F90B5
:100C10000FBE0F901F901895E82FF0E036E0EE0F12
:100C2000FF1F3A95E1F7E60FF11DE45AFE4F808170
:100C30000895282F30E046E0220F331F4A95E1F750
:100C4000245A3E4FC901089580E091E00895089527
:100C50000F931F93CF93DF9306E0C2C080918B0266
:100C6000809FE0011124C152DE4F8A81807F803451
:100C700009F064C08981823009F060C01B811F7750
:100C800011508B81882374F501C0D4DC809131012F
:100C9000882329F480912B01833659F4F6CF2091D3
:100CA0002B018091310130E090E00197281739073E
:100CB00061F382E56EDC01C0BDDC809131018823E7
:100CC00029F480912B018336B9F5F6CF20912B01C1
:100CD0008091310130E090E001972817390761F5E4
:100CE000EBCFA8DC80913101882329F480912B017E
:100CF000833659F4F6CF20912B018091310130E0F9
:100D000090E001972817390761F381E542DC01C0C3
:100D100091DC80913101882329F480912B01833665
:100D200059F4F6CF20912B018091310130E090E011
:100D300001972817390761F3812F50C08A81807F7E
:100D4000803309F04CC08981833009F048C01B8191
:100D500001C070DC80913101882329F480912B013E
:100D6000833659F4F6CF20912B018091310130E088
:100D700090E001972817390761F380E50ADC01C08C
:100D800059DC80913101882329F480912B0183362D
:100D900059F4F6CF20912B018091310130E090E0A1
:100DA00001972817390761F31F77812F8150F1DBF5
:100DB00001C040DC80913101882329F480912B010E
:100DC000833659F4F6CF20912B018091310130E028
:100DD00090E001972817390761F38C81DADB9CD901
:100DE0009091240180918B02981709F037CFDF9101
:100DF000CF911F910F910895DF92EF92FF920F9381
:100E00001F93DF93CF93CDB7DEB7A4970FB6F894B7
:100E1000DEBF0FBECDBF88E893E124EF31E0F901DA
:100E20003197F1F70197D9F7209880916800816098
:100E30008093680080916B00816080936B0080914B
:100E4000B10086608093B1008091700081608093D2
:100E500070002198299A1092F80110925B0127DA0C
:100E60003ADCCCDB81E080938A021092DC0178943A
:100E70008E010F5F1F4FFF24F39461E5D62E50E5DE
:100E8000E52ED8DBE5DE3FDA199932C08091F80112
:100E90008F5F4BDA87FD2CC08091F8018F5F8093C4
:100EA000F801823028F11092F80122C04983FA82B9
:100EB000DB828DB79EB784970FB6F8949EBF0FBEA6
:100EC0008DBFADB7BEB71196F80184E201900D92C7
:100ED0008150E1F7ACD980918A02815080938A02D7
:100EE0008DB79EB784960FB6F8949EBF0FBE8DBF88
:100EF00040918A024423B1F180912301882329F48F
:100F000080912201833091F62DC0209122018091A1
:100F1000230130E090E001972817390739F622C005
:100F20004983FA82EB828DB79EB784970FB6F89407
:100F30009EBF0FBE8DBFADB7BEB71196F80184E25C
:100F400001900D928150E1F772D98091DC018150BE
:100F50008093DC018DB79EB784960FB6F8949EBF40
:100F60000FBE8DBF4091DC01442309F48ACF8091EC
:100F70002301882329F480912201833089F681CFCF
:100F8000209122018091230130E090E00197281701
:100F9000390731F676CF1F920F920FB60F921124B8
:100FA0008F93189904C082E080938A0203C082E084
:100FB0008093DC018F910F900FBE0F901F901895BA
:100FC0001F920F920FB60F9211242F933F934F93BE
:100FD0005F936F937F938F939F93AF93BF93EF93A1
:100FE000FF93DF93CF93CDB7DEB7A497DEBFCDBF1E
:100FF00018995CC078D080912301882329F48091CE
:101000002201833061F452C020912201809123019A
:1010100030E090E001972817390709F447C0209184
:101020005B0180E28B83E22FF0E076E0EE0FFF1FA2
:101030007A95E1F7E45AFE4FDE011496AE014C5D5D
:101040005F4F90819295907F81818F70982B9D93B7
:101050003296A417B507A9F781E28A832F5F298307
:101060002DB73EB7245230400FB6F8943EBF0FBEA6
:101070002DBFADB7BEB71196FE01319684E2019047
:101080000D928150E1F7D3D880915B018F5F8093FF
:101090005B012DB73EB72C5D3F4F0FB6F8943EBFB6
:1010A0000FBE2DBF823010F010925B01A496DEBF00
:1010B000CDBFCF91DF91FF91EF91BF91AF919F9104
:1010C0008F917F916F915F914F913F912F910F90F1
:1010D0000FBE0F901F9018951092F2021092F4021A
:1010E0001092F30208958091F202882309F066C0FD
:1010F0008091F302843008F45EC01092F302809174
:10110000F402873011F480E027C0883021F480E0B9
:1011100062E0E4DA4AC0893011F480E010C08A301D
:1011200019F480E064E0F5CF803111F481E014C05F
:10113000813111F481E0ECCF823119F481E063E078
:10114000E8CF8A3111F482E007C08B3111F482E0DC
:10115000DFCF883219F483E061E0DBCF843659F4C5
:1011600080E063E0BBDA81E062E0B8DA82E061E06F
:10117000B5DA83E010C0853641F480E062E0AEDA93
:1011800081E061E0ABDA82E006C0863631F480E0CF
:1011900061E0A4DA81E060E0BCCF873631F480E022
:1011A00060E09CDA81E08093F2028091F4028F5F2C
:1011B0008093F40208958F5F8093F3020895F8946A
:0211C000FFCF5F
:1011C2006D6F6E6F6D6520617263203200000000EA
:1011D200000000000000000000000000000000000D
:00000001FF
