:1000000019C028C027C00AC60AC524C023C022C000
:1000100021C086C51FC01EC01DC01CC01BC01AC089
:1000200019C018C017C016C015C014C013C012C024
:10003000A1C110C011241FBECFEFD4E0DEBFCDBFE1
:1000400023E0A0E0B1E001C01D92A937B207E1F7BB
:100050006AD611C7D5CF80913301811106C0909126
:100060002B0181E0933671F40CC040912B0120915B
:10007000330150E030E02150310981E0421753074D
:1000800009F480E00895CF93DF931F92CDB7DEB7D8
:100090008983E1DF8823B1F0E0912B01F0E08981D1
:1000A000EE5EFC4F808380912B018F5F80932B014C
:1000B00080912B01843640F080912B0184568093EF
:1000C0002B0102C080E001C081E00F90DF91CF9151
:1000D0000895209122019091230181E0291301C00C
:1000E00080E008952091240190910F0381E029136D
:1000F00001C080E0089580912301811106C0909194
:10010000220181E0933071F40CC0409122012091D2
:10011000230150E030E02150310981E042175307BC
:1001200009F480E0089580910F03811106C0909139
:10013000240181E0933071F40CC04091240120919E
:100140000F0350E030E02150310981E0421753079E
:1001500009F480E0089580910F0326E0829FC0019A
:1001600011248D599D4F08958091240126E0829F8E
:10017000C00111248D599D4F089590910F038091D6
:100180002401981729F080910F038F5F80930F034C
:1001900080910F03843028F080910F038450809366
:1001A0000F030895CF93DF9300D000D000D0CDB7D8
:1001B000DEB749835A836B837C838D839E83B3DF51
:1001C0008823E9F0A091240186E08A9FD0011124C0
:1001D000AD59BD4FFE01319601900D928A95E1F720
:1001E000809124018F5F80932401809124018430C9
:1001F00040F08091240184508093240102C080E06B
:1002000001C081E026960FB6F894DEBF0FBECDBFC9
:10021000DF91CF9108958091230124E2829FC00154
:10022000112483589D4F08958091220124E2829FDA
:10023000C001112483589D4F08959091230180910E
:100240002201981729F0809123018F5F8093230169
:1002500080912301843028F0809123018450809381
:1002600023010895CF93DF93CDB7DEB744DF882312
:10027000E9F0A091220184E28A9FD0011124A358C1
:10028000BD4FFE01359601900D928A95E1F7809160
:1002900022018F5F8093220180912201843040F0FF
:1002A0008091220184508093220102C080E001C02D
:1002B00081E0DF91CF9108951092230110922201E5
:1002C00010920F031092240181E080937B02109220
:1002D0005C011092320185EC8093BC001092B90051
:1002E00089E18093B80008958AE090E0909321011D
:1002F000809320012AE030E080912001909121013B
:10030000181619067CF4349B02C0359905C0309349
:10031000210120932001F0CF019790932101809338
:100320002001EACF089580915C0181110AC0D1DEDD
:10033000882339F010927B021092320185EA809373
:10034000BC000895CF93C82F80915C01882311F0E1
:100350008FEF0EC0E8DE8823D9F391E090937B0203
:10036000C093250190935C0185EA8093BC0081E0F5
:10037000CF9108951F920F920FB60F9211242F93D1
:100380003F934F935F936F937F938F939F93AF931D
:10039000BF93EF93FF938091B900887F803309F476
:1003A0009DC080F4883109F4AFC028F4883031F161
:1003B000803121F1D6C0803209F490C0883209F42E
:1003C000A3C0CFC0883409F444C030F4883399F115
:1003D000803409F4C4C0C5C0803509F445C08835EF
:1003E00009F0BFC0E0910D03F0E08091BB00EB5D30
:1003F000FE4F828385E98093BC005EC081E08093DC
:100400005C0110920D0380917B02882339F01092D9
:10041000260180912501880F816094C0E09123011D
:1004200084E2E89FF0011124E358FD4F808190E0C1
:10043000880F991F87C080913201823020F485EAAD
:100440008093BC0003C0F9DE10925C0185EC8093C0
:10045000BC0085E98093BC008091BC0084FDFCCF8A
:1004600085EC8093BC004DC080910D0381110BC0C1
:100470008091BB00803321F0803429F482E001C0F8
:1004800083E080932601E0910D03F0E08091BB00B2
:10049000EB5DFE4F828380910D038F5F80930D0390
:1004A00020910D038091260130E090E001972817FC
:1004B00039070CF056C053C08091BC0084FDFCCFBE
:1004C00040912501509126016091270170912801EA
:1004D0008091290190912A0165DE3FC085E98093D2
:1004E000BC008091BC0084FDFCCF809132018F5F05
:1004F0008093320180913201823010F485EA32C05B
:100500009CDE10925C0130C0A091230184E28A9F9E
:10051000D0011124A358BD4F20910D0311969C9139
:10052000291798F4E09123018E9FF0011124E358DC
:10053000FD4F80910D0391E0980F90930D03E80F0C
:10054000F11D82818093BB000CC085E98093BC00C3
:100550008091BC0084FDFCCF70DE10925C0185ECC4
:1005600001C085E88093BC00FF91EF91BF91AF91EE
:100570009F918F917F916F915F914F913F912F91BB
:100580000F900FBE0F901F901895109211031092AC
:10059000100310922B011092330187B1836087B949
:1005A00087B1837F87B988B1836088B9E8E6F0E0D6
:1005B000808182608083ECE6F0E0808188608083C7
:1005C0000895419A8FEF8AB990912B018091330160
:1005D000981701F132991EC0409AE0913301F0E082
:1005E000EE5EFC4F80818BB94098909133018091F1
:1005F0002B01981729F0809133018F5F809333018D
:1006000080913301843600F38091330184568093C6
:100610003301DACF089590E4899FF0011124E60FA9
:10062000F11DE25AFE4F408308954EE551E020E06F
:1006300030E0FA01E20FF31F80832F5F3F4F203439
:100640003105B9F7405C5F4F92E04E35590779F7B5
:10065000089580E0EACF20E4829FC0011124825AED
:100660009E4F20E030E0FC01E20FF31F60832F5F1C
:100670003F4F20343105B9F70895CF93DF9320E43D
:10068000829FC0011124825A9E4F20E030E0DB019E
:10069000FC01E20FF31FEB014991BE014F70418352
:1006A0004C9142954F7040832E5F3F4F203431056F
:1006B00071F7DF91CF910895CF93DF93E62FF0E0AC
:1006C00090E036E0880F991F3A95E1F74617A0F0C1
:1006D0008E0F9F1F825A9E4F60E070E050E0DB015A
:1006E000AE0FBF1F4A175B0754F1DC01A60FB71FFF
:1006F0002C936F5F7F4FF3CFDF01A80FB91FA25A72
:10070000BE4F60E070E0EB01CE0FDF1FC034D105BB
:100710003CF4ED01C60FD71F28836F5F7F4FF3CFE7
:10072000825A9E4F60E070E050E0461757073CF059
:10073000FC01E60FF71F20836F5F7F4FF6CFDF913D
:10074000CF91089590E4899FF0011124E60FF11DE7
:10075000E25AFE4F8081089520E4829FC001112457
:10076000825A9E4F089580E091E0089520E2FC01B6
:10077000A0E0B1E001900D922A95E1F708956F9203
:100780007F928F929F92AF92BF92CF92DF92EF9221
:10079000FF920F931F93CF93DF931AB803E010E0FB
:1007A00066246394712C54E0E52EF12C62E2C62E8F
:1007B000D12C75E0A72EB12CE1E28E2E912C33992D
:1007C0001FC14198000000000000000089B1E091C5
:1007D0001003F0911103EC5CFE4F8083419A8091ED
:1007E00010039091110301969093110380931003CD
:1007F0008130910509F040C020913401263071F11B
:1008000058F4223009F128F4222369F1213059F1FA
:100810002FC0243041F51DC02039D9F030F42830E4
:10082000E9F008F12F30F9F023C0223941F0B0F09F
:100830002339F1F4B0922D01A0922C011DC0D09269
:100840002D01C0922C0118C090922D0180922C0194
:1008500013C0F0922D01E0922C010EC010932D01D7
:1008600000932C0109C090932D0180932C0104C0AA
:1008700070922D0160922C0120912C0130912D015C
:100880008217930709F09BCF809134018F3009F4D0
:100890009FC060F4813009F473C008F443C0823013
:1008A00009F46BC0853009F480C0A5C0813961F1BD
:1008B00058F4803909F09FC0E091350180913601EC
:1008C00090913701E37012C0823929F1833909F020
:1008D00092C08091350160913601409137014F738C
:1008E0006F73209138018370E7DE85C0803410F08B
:1008F0008450FCCF20E4E29FF0011124E80FF11DA9
:10090000E25AFE4F908377C08091350160913601A5
:100910008370A1DE70C08091350166E371E0837061
:10092000ACDE69C098DB811102C04BDEFBCF80E0FA
:10093000AADB91DB811102C044DEFBCF85E0A3DBA3
:100940008ADB811102C03DDEFBCF84E09CDB83DBD0
:10095000811102C036DEFBCF80E095DB7CDB8111AC
:1009600002C02FDEFBCF81E08EDB75DB811102C080
:1009700028DEFBCF80E087DB3EC085E391E0F6DE3A
:100980006ADB811102C01DDEFBCF81E07CDBC0E0B1
:10099000D1E061DB811102C014DEFBCF899173DBF2
:1009A00081E0C032D807A9F726C055DB811102C00B
:1009B00008DEFBCF83E067DB4EDB811102C001DE86
:1009C000FBCF80E060DB47DB8111D4CFFADDFBCFCA
:1009D00042DB811102C0F5DDFBCF8FE054DBC8E0C4
:1009E000D0E039DB811102C0ECDDFBCF8DE24BDBC7
:1009F00021972097B1F71092110310921003DFCEC8
:100A0000DF91CF911F910F91FF90EF90DF90CF90EA
:100A1000BF90AF909F908F907F906F9008951F929E
:100A20000F920FB60F9211242F933F934F935F9322
:100A30006F937F938F939F93AF93BF93EF93FF93A6
:100A4000339B9DDEFF91EF91BF91AF919F918F916D
:100A50007F916F915F914F913F912F910F900FBEBA
:100A60000F901F9018950F931F93CF93DF9306E07D
:100A700039DB882309F44FC0C0910F030C9FE001BC
:100A80001124CD59DD4F8A81807F803419F5898109
:100A9000823001F51B811F7711508B8187FF0CC0BD
:100AA000DADA811102C08DDDFBCF82E5ECDAD3DA30
:100AB00081110EC086DDFBCFCEDA811102C081DD4F
:100AC000FBCF81E5E0DAC7DA811102C07ADDFBCF26
:100AD000812F1EC08A81807F8033D9F48981833041
:100AE000C1F41B811F771150B6DA811102C069DD94
:100AF000FBCF80E5C8DAAFDA811102C062DDFBCF3F
:100B0000812FC1DAA8DA811102C05BDDFBCF8C81B5
:100B1000BADA33DBADCFDF91CF911F910F910895FA
:100B20001F920F920FB60F9211242F933F934F9362
:100B30005F936F937F938F939F93AF93BF93EF9345
:100B4000FF93CF93DF93CDB7DEB7A497DEBFCDBFC2
:100B500018994BC07ED0CFDA882309F446C0209183
:100B60005D0181E0820F898381E28A8380E28B8349
:100B7000FE01349660E4269F90011124225A3E4FD4
:100B800080E090E0D901A80FB91F4C9160E1469F29
:100B9000A001112411965C915F70542B5193029621
:100BA0008034910579F78DB79EB784970FB6F89486
:100BB0009EBF0FBE8DBFADB7BEB7119684E2FE01DA
:100BC000319601900D928A95E1F74CDB80915D01A1
:100BD0008F5F0FB6F894DEBF0FBECDBF843018F420
:100BE00080935D0102C010925D01A4960FB6F89447
:100BF000DEBF0FBECDBFDF91CF91FF91EF91BF91CF
:100C0000AF919F918F917F916F915F914F913F91A4
:100C10002F910F900FBE0F901F9018951F920F925B
:100C20000FB60F9211248F9384E0189903C080931C
:100C30000E0302C080935E028F910F900FBE0F9043
:100C40001F901895109276031092780310927703F4
:100C5000089580917603811165C080917703843077
:100C600008F45DC01092770380917803873011F407
:100C700061E003C0883021F462E080E0ECDC49C030
:100C8000893011F463E0F9CF8A3011F464E0F5CFD4
:100C9000803111F461E033C0813111F462E02FC082
:100CA000823111F463E02BC08A3111F461E01FC07E
:100CB0008B3111F462E01BC0883211F461E00CC08A
:100CC000843661F463E080E0C6DC62E081E0C3DC8E
:100CD00061E082E0C0DC60E083E0D0CF853649F49B
:100CE00062E080E0B8DC61E081E0B5DC60E082E0F9
:100CF000C5CF863631F461E080E0ADDC60E081E0B4
:100D0000BDCF873631F460E080E0A5DC81E08093E0
:100D10007603809178038F5F8093780308958F5FC7
:100D2000809377030895CF93DF93CDB7DEB7A49771
:100D30000FB6F894DEBF0FBECDBF2FE784E89EE16B
:100D4000215080409040E1F700C000002098809141
:100D5000680081608093680080916B00816080935F
:100D60006B008091B10086608093B100809170002B
:100D70008160809370002198299A10927C021092D1
:100D80005D019ADA66DC01DC81E080930E0310924B
:100D90005E02789414E201E0A1E5FA2EF0E5EF2E70
:100DA00010DC61DEC0DA199936C080917C028F5F59
:100DB000C9DA87FD30C080917C028F5F80937C020E
:100DC000843048F110927C0226C095D9882309F41A
:100DD0004DC080910E0389830A83FB828DB79EB735
:100DE00084970FB6F8949EBF0FBE8DBFADB7BEB748
:100DF0001196FE013196812F01900D928A95E1F7AF
:100E000031DA80910E03815080930E030FB6F8946F
:100E1000DEBF0FBECDBF80910E038111D6CF26C09D
:100E20006AD9882309F4BACF80915E0289830A8344
:100E3000EB828DB79EB784970FB6F8949EBF0FBE16
:100E40008DBFADB7BEB71196FE013196812F0190CF
:100E50000D928A95E1F706DA80915E0281508093C7
:100E60005E020FB6F894DEBF0FBECDBF80915E026A
:0A0E70008111D6CF95CFF894FFCF83
:00000001FF
