:1000000019C033C032C0C1C7DDC52FC02EC02DC03E
:100010002CC0D0C72AC029C028C027C026C025C0F0
:1000200024C023C022C021C020C01FC01EC01DC0CC
:10003000A2C11BC011241FBECFEFD4E0DEBFCDBFD5
:1000400011E0A0E0B1E0E6EBF1E102C005900D9215
:10005000A032B107D9F713E0A0E2B1E001C01D92D0
:10006000A937B107E1F7C2D6A4C8CACF909122013F
:100070008091230120E0981321E0822F0895909130
:10008000240180910F0320E0981321E0822F08952E
:1000900080912301882331F48091220140E0833054
:1000A00061F40CC0209122018091230140E030E0F6
:1000B00090E001972817390709F041E0842F08954F
:1000C00080910F03882331F48091240140E0833034
:1000D00061F40CC02091240180910F0340E030E0D6
:1000E00090E001972817390709F041E0842F08951F
:1000F00020910F0386E0289F900111242D593D4F38
:10010000C90108952091240186E0289F90011124BF
:100110002D593D4FC901089590910F0380912401FD
:10012000981729F080910F038F5F80930F038091C0
:100130000F03843028F080910F03845080930F03C5
:100140000895DF93CF9300D000D000D0CDB7DEB7B5
:1001500049835A836B837C838D839E8380910F03B5
:10016000882329F480912401833069F40AC0209106
:10017000240180910F0330E090E0019728173907A0
:1001800011F480E022C08091240190E0FC01EE0F88
:10019000FF1FE80FF91FEE0FFF1FED59FD4FDE01A6
:1001A000119686E00D9001928150E1F78091240133
:1001B0008F5F8093240180912401843028F0809106
:1001C000240184508093240181E026960FB6F89490
:1001D000DEBF0FBECDBFCF91DF91089520912301E7
:1001E00084E2289F9001112423583D4FC9010895AE
:1001F0002091220184E2289F9001112423583D4F31
:10020000C90108959091230180912201981729F046
:10021000809123018F5F809323018091230184309B
:1002200028F0809123018450809323010895DF9367
:10023000CF93CDB7DEB780912301882329F4809135
:100240002201833069F40AC02091220180912301A8
:1002500030E090E001972817390711F480E024C0BE
:100260008091220190E024E230E0829FF001839FA0
:10027000F00D929FF00D1124E358FD4FDE0115960D
:1002800084E20D9001928150E1F7809122018F5F0D
:100290008093220180912201843028F080912201F4
:1002A00084508093220181E0CF91DF9108951092D4
:1002B00023011092220110920F031092240181E079
:1002C00080937B0210925C011092320185EC809346
:1002D000BC001092B90089E18093B80008958AE0CB
:1002E00090E009C0349B04C0359B02C0019703C055
:1002F0008AE090E0F7CF18161906A4F39093210135
:1003000080932001089580915C01882369F4909185
:10031000220180912301981739F010927B021092EC
:10032000320185EA8093BC000895482F80915C01DA
:100330008823F9F480910F03882329F48091240104
:10034000833059F416C02091240180910F0330E0CE
:1003500090E001972817390761F081E080937B02D4
:100360004093250180935C0185EA8093BC0081E085
:1003700008958FEF08951F920F920FB60F921124D8
:100380002F933F934F935F936F937F938F939F939D
:10039000AF93BF93EF93FF938091B900887F803331
:1003A00009F4A2C0813390F4883109F4B3C08931D3
:1003B00030F48830D9F0803109F0D7C017C08032CE
:1003C00009F492C0883209F0D0C0A4C08834D9F1B1
:1003D000893430F4883349F1803409F0C6C0C3C091
:1003E0008035E1F1883509F0C0C061C081E08093BB
:1003F0005C0110920D0380917B02882339F01092EA
:10040000260180912501880F81600CC0E0912301B5
:1004100084E2E89FF0011124E358FD4F808190E0D1
:10042000880F991F8093BB00A0C080913201823059
:1004300020F485EA8093BC0003C0E4DE10925C01E6
:1004400085EC8093BC0085E98093BC008091BC0062
:1004500084FDFCCF85EC8093BC0059C080910D03D6
:10046000882361F48091BB00803319F0803431F42B
:1004700002C083E001C082E080932601E0910D0379
:10048000F0E08091BB00EB5DFE4F828380910D0315
:100490008F5F80930D0320910D038091260130E042
:1004A00090E00197281739070CF05FC05CC0E0911D
:1004B0000D03F0E08091BB00EB5DFE4F828385E988
:1004C0008093BC008091BC0084FDFCCF409125014D
:1004D0005091260160912701709128018091290196
:1004E00090912A012EDE3DC085E98093BC00809169
:1004F000BC0084FDFCCF809132018F5F809332017C
:1005000080913201823010F485EA30C07BDE109297
:100510005C012EC0E091230124E2E29FF00111244E
:10052000E358FD4F90910D038181981790F4E0916D
:100530002301E29FF0011124E358FD4F80910D0348
:10054000E80FF11D92819093BB008F5F80930D03A4
:100550000CC085E98093BC008091BC0084FDFCCF79
:1005600051DE10925C0185EC01C085E88093BC00EF
:10057000FF91EF91BF91AF919F918F917F916F917B
:100580005F914F913F912F910F900FBE0F901F9051
:100590001895DF93CF930F92CDB7DEB78983809103
:1005A0003301882329F480912B01833669F40AC032
:1005B00020912B018091330130E090E001972817C2
:1005C000390711F480E016C0E0912B01F0E0898139
:1005D000EE5EFC4F808380912B018F5F80932B0117
:1005E00080912B01843628F080912B0184568093D2
:1005F0002B0181E00F90CF91DF91089510921103AC
:100600001092100310922B011092330187B1836076
:1006100087B987B1837F87B988B1836088B9E8E6F5
:10062000F0E0808182608083ECE6F0E08081886089
:1006300080830895419A8FEF8AB91DC0409AE09156
:100640003301F0E0EE5EFC4F80818BB940989091D1
:10065000330180912B01981729F0809133018F5F2E
:100660008093330180913301843628F080913301E7
:1006700084568093330190912B0180913301981718
:1006800011F0329BDBCF0895E82FF0E056E0EE0F3B
:10069000FF1F5A95E1F7E60FF11DE25AFE4F408326
:1006A000089540E050E00BC081932F5F3F4F20340E
:1006B0003105D1F74F5F5F4F4430510559F0FA01D2
:1006C00066E0EE0FFF1F6A95E1F7E25AFE4F20E069
:1006D00030E0EACF089580E0E4DF089590E0E6E0BE
:1006E000880F991FEA95E1F7FC01E25AFE4F825606
:1006F0009E4F6193E817F907E1F70895262F372FEA
:10070000D90190E026E0880F991F2A95E1F7FC01B6
:10071000E25AFE4F9C0122563E4F8C918F7081838E
:100720008D9182958F7080833296E217F307A9F737
:1007300008950F931F93142F022F262F30E0482F78
:1007400050E01617C8F0FA0176E0EE0FFF1F7A9519
:10075000E1F7E20FF31FE25AFE4FA0E0B0E0B9016B
:10076000412F50E002C001931196CD01860F971FD3
:1007700048175907C4F728C0FA0166E0EE0FFF1FBB
:100780006A95E1F7E20FF31FE25AFE4FA0E0B0E0F6
:10079000B90102C001931196CD01860F971F8034D5
:1007A0009105C4F3FA0136E0EE0FFF1F3A95E1F729
:1007B000E25AFE4F80E090E0412F50E002C00193EA
:1007C000019648175907DCF71F910F910895CF93B1
:1007D000DF931AB8DFC1419800000000000000005C
:1007E00089B18083419A4F5F5F4F4130510551F588
:1007F00080913401883009F1893038F4843089F0EF
:100800008630D9F08230E1F415C08139B1F08239F7
:1008100018F48039A9F405C0823931F0833981F4A4
:1008200006C024E030E00EC022E230E00BC025E03C
:1008300030E008C021E230E005C023E030E002C033
:1008400021E030E031964217530709F0AEC15093D2
:1008500011034093100350932D0140932C0180917C
:1008600034018F3009F460C1803150F4833020F4BA
:10087000813008F0DEC053C0853009F087C10FC158
:10088000813919F1823920F4803909F07FC106C01D
:10089000823981F1833909F079C133C0E0913501A2
:1008A0008091360190913701E37001C0845080340B
:1008B000E8F7F0E026E0EE0FFF1F2A95E1F7E80FDA
:1008C000F11DE25AFE4F908361C180913501209164
:1008D0003601837090E0B6E0880F991FBA95E1F772
:1008E000FC01E25AFE4F82569E4F2193E817F9070A
:1008F000E1F74CC180913501837066E371E0FEDE63
:1009000045C18091350160913601409137016F7387
:100910004F738370209138010CDF38C18BDE8091DA
:100920003301882329F480912B01833659F4F6CFC3
:1009300020912B018091330130E090E0019728173E
:10094000390761F380E025DE01C074DE8091330158
:10095000882329F480912B01833659F4F6CF209116
:100960002B018091330130E090E00197281739077F
:1009700061F385E00EDE01C05DDE809133018823E6
:1009800029F480912B01833659F4F6CF20912B0165
:100990008091330130E090E001972817390761F327
:1009A00084E0F7DD01C046DE80913301882329F41D
:1009B00080912B01833659F4F6CF20912B01809141
:1009C000330130E090E001972817390761F380E0A8
:1009D000E0DD01C02FDE80913301882329F480916E
:1009E0002B01833659F4F6CF20912B0180913301EE
:1009F00030E090E001972817390761F381E0C9DD05
:100A000001C018DE80913301882331F480912B01DD
:100A1000833609F085C0F5CF20912B0180913301F9
:100A200030E090E001972817390709F079C0E9CF45
:100A300001DE80913301882329F480912B018336D4
:100A400059F4F6CF20912B018091330130E090E0F2
:100A500001972817390761F381E09BDDC0E0D1E001
:100A600001C0E8DD80913301882329F480912B01B6
:100A7000833659F4F6CF20912B018091330130E079
:100A800090E001972817390761F3888182DD81E0C2
:100A9000CF31D80709F47AC02196E4CFCBDD80911D
:100AA0003301882329F480912B01833659F4F6CF42
:100AB00020912B018091330130E090E001972817BD
:100AC000390761F383E065DD01C0B4DD8091330156
:100AD000882329F480912B01833659F4F6CF209195
:100AE0002B018091330130E090E0019728173907FE
:100AF00061F380E04EDD01C09DDD809133018823EC
:100B000029F480912B01833659F4F6CF20912B01E3
:100B10008091330130E090E001972817390761F3A5
:100B200080E037DD33C086DD80913301882329F4EE
:100B300080912B01833659F4F6CF20912B018091BF
:100B4000330130E090E001972817390761F38FE017
:100B500020DDC0E0D0E001C06DDD8091330188234D
:100B600029F480912B01833659F4F6CF20912B0183
:100B70008091330130E090E001972817390761F345
:100B80008DE207DD2196C830D10539F710921103A7
:100B900010921003409110035091110320912C01E9
:100BA00030912D01FA01EC5CFE4F339B14CE509333
:100BB00011034093100330932D0120932C01DF91FA
:100BC000CF9108951F920F920FB60F9211242F9379
:100BD0003F934F935F936F937F938F939F93AF93C5
:100BE000BF93EF93FF93339BF2DDFF91EF91BF91A2
:100BF000AF919F918F917F916F915F914F913F91B5
:100C00002F910F900FBE0F901F901895E82FF0E0D6
:100C100036E0EE0FFF1F3A95E1F7E60FF11DE25ABD
:100C2000FE4F80810895282F30E046E0220F331FC9
:100C30004A95E1F7225A3E4FC901089580E091E0BC
:100C4000089508950F931F93CF93DF9306E0C2C0DA
:100C500080910F03809FE0011124CD59DD4F8A81DF
:100C6000807F803409F064C08981823009F060C0DF
:100C70001B811F7711508B81882374F501C0DADC4A
:100C800080913301882329F480912B01833659F414
:100C9000F6CF20912B018091330130E090E0019755
:100CA0002817390761F382E574DC01C0C3DC809149
:100CB0003301882329F480912B018336B9F5F6CFCF
:100CC00020912B018091330130E090E001972817AB
:100CD000390761F5EBCFAEDC80913301882329F42D
:100CE00080912B01833659F4F6CF20912B0180910E
:100CF000330130E090E001972817390761F381E56F
:100D000048DC01C097DC80913301882329F480916D
:100D10002B01833659F4F6CF20912B0180913301BA
:100D200030E090E001972817390761F3812F50C018
:100D30008A81807F803309F04CC08981833009F03B
:100D400048C01B8101C076DC80913301882329F4DF
:100D500080912B01833659F4F6CF20912B0180919D
:100D6000330130E090E001972817390761F380E5FF
:100D700010DC01C05FDC80913301882329F480916D
:100D80002B01833659F4F6CF20912B01809133014A
:100D900030E090E001972817390761F31F77812F22
:100DA0008150F7DB01C046DC80913301882329F4B0
:100DB00080912B01833659F4F6CF20912B0180913D
:100DC000330130E090E001972817390761F38C81F7
:100DD000E0DBA2D99091240180910F03981709F0CC
:100DE00037CFDF91CF911F910F910895DF92EF924E
:100DF000FF920F931F93DF93CF93CDB7DEB7A497E6
:100E00000FB6F894DEBF0FBECDBF88E893E124EFA4
:100E100031E0F9013197F1F70197D9F720988091E6
:100E2000680081608093680080916B00816080938E
:100E30006B008091B10086608093B100809170005A
:100E40008160809370002198299A10927C02109200
:100E50005D012DDA40DCD2DB81E080930E0310923D
:100E60005E0278948E010F5F1F4FFF24F39461E5BB
:100E7000D62E50E5E52EDEDBE5DE45DA199932C0E7
:100E800080917C028F5F51DA87FD2CC080917C02BB
:100E90008F5F80937C02843028F110927C0222C004
:100EA0004983FA82DB828DB79EB784970FB6F89498
:100EB0009EBF0FBE8DBFADB7BEB71196F80184E2DD
:100EC00001900D928150E1F7B2D980910E038150CB
:100ED00080930E038DB79EB784960FB6F8949EBF8D
:100EE0000FBE8DBF40910E034423B1F180912301C9
:100EF000882329F480912201833091F62DC020911E
:100F000022018091230130E090E0019728173907F2
:100F100039F622C04983FA82EB828DB79EB7849757
:100F20000FB6F8949EBF0FBE8DBFADB7BEB711967A
:100F3000F80184E201900D928150E1F778D9809117
:100F40005E02815080935E028DB79EB784960FB685
:100F5000F8949EBF0FBE8DBF40915E02442309F4FA
:100F60008ACF80912301882329F480912201833044
:100F700089F681CF209122018091230130E090E019
:100F800001972817390731F676CF1F920F920FB6C7
:100F90000F9211248F93189904C084E080930E035C
:100FA00003C084E080935E028F910F900FBE0F907C
:100FB0001F9018951F920F920FB60F9211242F9326
:100FC0003F934F935F936F937F938F939F93AF93D1
:100FD000BF93EF93FF93DF93CF93CDB7DEB7A49783
:100FE000DEBFCDBF18995CC078D0809123018823E3
:100FF00029F480912201833061F452C020912201B2
:101000008091230130E090E001972817390709F417
:1010100047C020915D0180E28B83E22FF0E076E013
:10102000EE0FFF1F7A95E1F7E25AFE4FDE011496AC
:10103000AE014C5D5F4F90819295907F81818F7062
:10104000982B9D933296A417B507A9F781E28A835E
:101050002F5F29832DB73EB7245230400FB6F89446
:101060003EBF0FBE2DBFADB7BEB71196FE01319684
:1010700084E201900D928150E1F7D9D880915D0111
:101080008F5F80935D012DB73EB72C5D3F4F0FB64C
:10109000F8943EBF0FBE2DBF843010F010925D015A
:1010A000A496DEBFCDBFCF91DF91FF91EF91BF91AD
:1010B000AF919F918F917F916F915F914F913F91F0
:1010C0002F910F900FBE0F901F90189510927603DE
:1010D0001092780310927703089580917603882305
:1010E00009F066C080917703843008F45EC01092E6
:1010F000770380917803873011F480E027C088302F
:1011000021F480E062E0EADA4AC0893011F480E03C
:1011100010C08A3019F480E064E0F5CF803111F41A
:1011200081E014C0813111F481E0ECCF823119F4F7
:1011300081E063E0E8CF8A3111F482E007C08B31AF
:1011400011F482E0DFCF883219F483E061E0DBCF75
:10115000843659F480E063E0C1DA81E062E0BEDA0F
:1011600082E061E0BBDA83E010C0853641F480E0C4
:1011700062E0B4DA81E061E0B1DA82E006C086368E
:1011800031F480E061E0AADA81E060E0BCCF87362C
:1011900031F480E060E0A2DA81E080937603809110
:1011A00078038F5F8093780308958F5F8093770330
:0611B0000895F894FFCF42
:1011B6006D6F6E6F6D6520617263203400000000F4
:1011C6000000000000000000000000000000000019
:00000001FF
