:1000000019C033C032C031C030C02FC02EC02DC087
:100010002CC02BC02AC029C028C027C026C025C09C
:10002000B1C5E5C422C021C020C01FC01EC01DC074
:100030006BC11BC011241FBECFEFD4E0DEBFCDBF0C
:1000400011E0A0E0B1E0E8E4FCE002C005900D9210
:10005000A032B107D9F712E0A0E2B1E001C01D92D1
:10006000AC39B107E1F73FD3EDC5CACF909122017A
:100070008091230120E0981321E0822F0895909130
:10008000240180917C0220E0981321E0822F0895C2
:1000900080912301882331F48091220140E0853052
:1000A00061F40CC0209122018091230140E030E0F6
:1000B00090E001972817390709F041E0842F08954F
:1000C00080917C02882331F48091240140E08330C8
:1000D00061F40CC02091240180917C0240E030E06A
:1000E00090E001972817390709F041E0842F08951F
:1000F00020917C0284E2289F9001112425533E4FD9
:10010000C90108952091240184E2289F90011124BF
:1001100025533E4FC901089590917C02809124019E
:10012000981729F080917C028F5F80937C028091E8
:100130007C02843028F080917C02845080937C0281
:100140000895DF93CF93CDB7DEB780917C028823EB
:1001500029F480912401833069F40AC0209124019C
:1001600080917C0230E090E001972817390711F464
:1001700080E024C08091240190E024E230E0829F5E
:10018000F001839FF00D929FF00D1124E553FE4F77
:10019000DE01159684E20D9001928150E1F7809185
:1001A00024018F5F8093240180912401843028F002
:1001B0008091240184508093240181E0CF91DF91CC
:1001C00008952091230185E0289F90011124235A4E
:1001D0003D4FC90108952091220185E0289F90019B
:1001E0001124235A3D4FC901089590912301809114
:1001F0002201981729F0809123018F5F80932301BA
:1002000080912301863028F08091230186508093CD
:1002100023010895DF93CF9300D000D00F92CDB784
:10022000DEB749835A836B837C838D83809123015E
:10023000882329F480912201853069F40AC0209135
:1002400022018091230130E090E0019728173907BF
:1002500011F480E022C08091220190E0FC01EE0FB9
:10026000FF1FEE0FFF1FE80FF91FE35AFD4FDE01DE
:10027000119685E00D9001928150E1F78091220165
:100280008F5F8093220180912201863028F0809137
:10029000220186508093220181E00F900F900F90F1
:1002A0000F900F90CF91DF9108951092230110923B
:1002B000220110927C021092240191E090935B0243
:1002C0001092CA011092C9018F7780935C0285EC6D
:1002D0008093BC0080915C02880F81608093BA009B
:1002E0001092B90089E18093B800089580915C0272
:1002F00008959091220180912301981719F05A983E
:10030000529A0895529808951F920F920FB60F9225
:1003100011242F933F934F935F936F937F938F930A
:100320009F93AF93BF93EF93FF938091B900887F22
:10033000803909F44BC0813998F4803739F181371D
:1003400030F4803619F1883609F023C11FC0803897
:10035000E9F1883809F44CC0883709F01AC116C091
:10036000883A09F49CC0893A38F4883909F440C0C5
:10037000803A09F00EC16CC0803C09F4E1C0883CB1
:1003800009F4F9C0883B09F004C1B9C080917C022E
:10039000882329F480912401833059F414C02091DA
:1003A000240180917C0230E090E001972817390702
:1003B00051F0109225011092260181E08093CA012C
:1003C00080935B02E4C01092CA01E3C080912501D2
:1003D000E82FF0E09091BB00EB5DFE4F92838F5FC2
:1003E0008093250180912501823208F4D0C0D1C0CC
:1003F00080912501E82FF0E09091BB00EB5DFE4F6E
:1004000092838F5F8093250181E0809326018DB7D1
:100410009EB784970FB6F8949EBF0FBE8DBFADB741
:10042000BEB71196E5E2F1E084E201900D928150B1
:10043000E1F787DE1092CA0185EC8093BC008DB78E
:100440009EB784960FB6F8949EBF0FBE8DBFA4C012
:1004500080912501882309F49AC08DB79EB78497AF
:100460000FB6F8949EBF0FBE8DBFADB7BEB7119645
:10047000E5E2F1E084E201900D928150E1F761DE66
:1004800010922501109226011092CA018DB79EB7D5
:1004900084960FB6F8949EBF0FBE8DBF78C0909122
:1004A000220180912301981739F181E08093CA01DC
:1004B00010925B0210927B02E091230195E0E99F8C
:1004C000F0011124E35AFD4F80917B02E80FF11DEA
:1004D00081818093BB0080917B028F5F80937B0240
:1004E000E0912301E99FF0011124E35AFD4F80813F
:1004F000823008F04CC04DC01092BB004AC0E09161
:10050000230125E0E29FF0011124E35AFD4F809181
:100510007B02E80FF11D81818093BB0080917B02FB
:100520008F5F80937B0290917B02E0912301E29F99
:10053000F0011124E35AFD4F8081981750F527C030
:1005400090917B02E091230185E0E89FF001112466
:10055000E35AFD4F8081981708F047DE9091220101
:1005600080912301981719F05A98529A01C0529815
:100570001092CA010CC01092CA0190912201809180
:100580002301981719F05A98529A01C0529885EC95
:1005900001C085E88093BC00FF91EF91BF91AF91BE
:1005A0009F918F917F916F915F914F913F912F918B
:1005B0000F900FBE0F901F9018956817790764F081
:1005C00048175907ACF090E0641775070CF491E0F8
:1005D00081E09827292F0AC0461757074CF020E0E2
:1005E000841795070CF421E081E0282730E002C051
:1005F00020E030E0C9010895DF92EF92FF920F935F
:100600001F93CF93DF9354E2D52E5EC080917C027E
:100610008D9DE0011124C553DE4F8A81807F61F4F6
:100620008881813049F402D310E0812F60E067D1E6
:100630001F5F1034D1F747C08A81807F8031A9F4D1
:100640008881823091F4F2D22A818B816B8130E0F3
:100650002370307044E0220F331F4A95E1F78295F2
:100660008F706F70822B4BD12EC08A81807F803239
:10067000E9F488818132D1F4D9D231E0E32EF12C32
:1006800000E0FE01EE0DFF1D6281128162956F7028
:10069000802F35D11F70802F8F5F612F30D108944C
:1006A000E11CF11C0E5F003461F70DC08A81807F70
:1006B000803549F48881813031F48A8180FF02C01D
:1006C000B5D201C0B8D228DD9091240180917C027E
:1006D000981709F09BCFDF91CF911F910F91FF9059
:1006E000EF90DF900895DF92EF92FF920F931F93A8
:1006F000DF93CF9300D000D00F92CDB7DEB788B193
:100700008F6088B980ED97E024EF31E0F9013197EF
:10071000F1F70197D9F786B1806F8195C6DD80D258
:1007200059D030D17894E2E0DE2E70E4E72E63E019
:10073000F62E00E375D060DF80912301882329F431
:1007400080912201853059F41FC0209122018091AF
:10075000230130E090E0019728173907A9F04CD029
:10076000882391F010915C021F774ED0813009F4FC
:100770001068D982EA821B8342E050E4612F7C81B9
:100780008D8148DD811143D080912301882329F494
:1007900080912201853059F41BC020912201809163
:1007A000230130E090E001972817390789F01FD026
:1007B000009771F0F9820A8360915C026F776B8316
:1007C0008C8343E050E3782F8D8124DD811123D089
:1007D00090DDB0CF5B9A1092800210927D0281E092
:1007E0008093810210927F0210927E020895809180
:1007F0007E0290917F02089590E08091810288238B
:1008000009F491E0892F089580917D02089581E097
:1008100080938102089510927F0210927E020895C3
:100820004B9B07C080917D02882319F010927D02B6
:1008300009C04B9909C080917D02813029F081E087
:1008400080937D0210928102809180028130A1F01C
:10085000813030F08230F9F0833009F04FC02EC083
:100860004D9B04C04E9B02C081E00BC04D9946C019
:100870004E9944C083E01AC04D9906C04E9B04C0F7
:1008800082E08093800220C04D9B38C04E9936C0D4
:10089000109280020DC04D9904C04E9902C083E0B1
:1008A000F0CF4D9B2BC04E9B29C081E080938002EE
:1008B00080917E0290917F0201970BC04D9B0EC0EC
:1008C0004E990CC01092800280917E0290917F021E
:1008D000019690937F0280937E0208954D990EC0F9
:1008E0004E9B0CC082E08093800280917E029091AA
:1008F0007F02019790937F0280937E020895E62FF6
:10090000A82FB0E0AA0FBB1FA75BBE4FF0E0EE0F11
:10091000FF1FE050FF4F808191818D939C9308953C
:10092000E82FF0E0EE0FFF1FE050FF4F0190F08145
:10093000E02DA9E4B1E0ED93FD9381E0A93CB80777
:10094000D1F7089584B18C6284B980ED8CBD81E0CB
:100950008DBD2A9A549A5C9A0895219A83E085BDA8
:1009600081E080936E00E1E8F0E080818860808320
:1009700080818160808381E090E090938900809302
:1009800088000895209A519A289AE9E4F1E011929A
:10099000119281E0E93CF807D1F7109221018AE138
:1009A00080932001CFDFE2E8F2E08FEF819392E0C5
:1009B000EB39F907D9F781E0809320018091820219
:1009C0008EBD789488EE93E024EF31E0F901319701
:1009D000F1F70197D9F7599A59982898BEDF0895E9
:1009E000809182028EBD81E08093200108951F9244
:1009F0000F920FB60F9211248F939F93EF93FF9353
:100A000090912001993148F4E92FF0E0EE57FD4F25
:100A100080818EBD9F5F90932001FF91EF919F9108
:100A20008F910F900FBE0F901F9018951F93182F46
:100A300006D1813059F08DED80938202E3E8F2E037
:100A4000119282E0EB39F807D9F79AC0113061F1C1
:100A5000113038F0123009F44AC0133009F08DC05B
:100A600069C08DED80938202E9E4F1E0A3E8B2E091
:100A70008281238112968C931297808191812F70AD
:100A8000382F3295307F232B11962C93119764E0E9
:100A9000969587956A95E1F78C933496139681E045
:100AA000E936F80729F76CC08BEB80938202E5E802
:100AB000F1E0A3E8B2E08081218112968C93129735
:100AC000828193812F70382F3295307F232B11969E
:100AD0002C93119754E0969587955A95E1F78C934E
:100AE0003497139681E0E536F80729F749C087E780
:100AF00080938202E9E8F1E0A3E8B2E082812381F9
:100B000012968C931297808191812F70382F329595
:100B1000307F232B11962C93119744E0969587955F
:100B20004A95E1F78C933496139681E0E93AF807F9
:100B300029F726C08EEE80938202E5ECF1E0A3E86F
:100B4000B2E08081218112968C93129782819381E9
:100B50002F70382F3295307F232B11962C931197BD
:100B600034E0969587953A95E1F78C9334971396F0
:100B700081E0E53AF80729F703C08FEF80938202FE
:100B80001F9108951F920F920FB60F9211242F9369
:100B90003F934F935F936F937F938F939F93AF9305
:100BA000BF93EF93FF934BD0882349F1F894809142
:100BB00080008F7B80938000599A00000000000025
:100BC0000000000000005C9A8091800080648093A7
:100BD0008000809121012ADF5C98599828988091A3
:100BE00082028EBD81E080932001809121018F5F80
:100BF00080932101843010F0109221017894FF91AC
:100C0000EF91BF91AF919F918F917F916F915F9184
:100C10004F913F912F910F900FBE0F901F901895FD
:100C2000579A5F9881E080939B0208955F9881E0D6
:100C300080939B0208955F9A10929B020895809181
:080C40009B020895F894FFCF18
:100C480000000E0023003E0063009600DB0039011F
:100C5800B90166025103920445069508BA0BFF0FC5
:00000001FF
